S00C0000617373322E737265639F
S11300000C94AD000C94CA000C94CA000C94CA0061
S11300100C94CA000C9428010C94CA000C94CA00D5
S11300200C94CA000C94CA000C94CA000C94CA0024
S11300300C94CA000C94CA000C94CA000C94CA0014
S11300400C94AE0B0C94CA000C94CA000C94CA0015
S11300500C94E00A0C949E0A0C94CA000C94CA00F6
S11300600C94CA000C94CA000C94CA000C94CA00E4
S11300700C94CA000C94CA000C94CA002564002590
S113008064002020202020202020202020005072E6
S1130090657373206120627574746F6E206F7220B3
S11300A02773272F27532720746F2073746172746A
S11300B02061206E65772067616D650047414D457D
S11300C0204F5645520047616D6520506175736538
S11300D064002564002564002564002564004761EC
S11300E06D652053706565643A2035303000506C7E
S11300F06179657220322053636F72653A20300053
S1130100506C6179657220312053636F72653A20B7
S1130110300043535345323031302F3732303120A1
S113012041322062792042656E6A616D696E2042B7
S113013075726E202D203435353037303837005005
S11301404F4E47001B5B3F323568001B5B324A0051
S11301501B5B25643B256448000011241FBECFEFC0
S1130160D8E0DEBFCDBF11E0A0E0B1E0E4EFFFE1F5
S113017002C005900D92A234B107D9F722E0A2E49F
S1130180B1E001C01D92A737B207E1F70E94DA0976
S11301900C94F80F0C940000E8E6F0E08081826093
S11301A080838BB382608BBBECE6F0E080818F6050
S11301B0808310924701089580914701181614F521
S11301C0809148016FB7F89491E009C0F901E85BA8
S11301D0FE4F4081F901E95BFE4F40839F5F292F69
S11301E030E040914701042E000C550B24173507CD
S11301F06CF39091470191509093470166231CF44E
S1130200789408958FEF0895809142018823F1F046
S1130210809143015FB7F89491E00BC0292F30E03F
S1130220F901ED5BFE4F4081F901EE5BFE4F408327
S11302309F5F20914201921788F39091420191505F
S11302409093420155231CF4789408958FEF0895F8
S11302501F920F920FB60F9211242F933F938F93F7
S11302609F93EF93FF9393B19F7080E049C02091D7
S1130270470124300CF5292F30E0082E02C03595B3
S113028027950A94E2F720FF17C020914C0130E033
S1130290082E02C0359527950A94E2F720FD0CC07C
S11302A0E091470121E02E0F209347010E2E000C10
S11302B0FF0BE85BFE4F8083209142012430F8F469
S11302C0292F30E0082E02C0359527950A94E2F7CD
S11302D020FD15C020914C0130E0082E02C0359558
S11302E027950A94E2F720FF0AC0E091420121E039
S11302F02E0F20934201F0E0ED5BFE4F80838F5F71
S1130300843008F4B4CF90934C01FF91EF919F9106
S11303108F913F912F910F900FBE0F901F901895C2
S11303200F931F93CF93DF93CDB7DEB728970FB604
S1130330F894DEBF0FBECDBF0E94520680E090E06D
S113034009C0E1E0F0E0EC0FFD1FE80FF91F25E321
S11303502083019688309105A4F301E010E008C0E1
S1130360BE016F5F7F4F802F0E9435060F5F1F4FC6
S113037002301105ACF30EE010E008C0BE016F5F5F
S11303807F4F802F0E9435060F5F1F4F0F301105DE
S1130390ACF328960FB6F894DEBF0FBECDBFDF9145
S11303A0CF911F910F9108951F93CF93DF93CDB7F2
S11303B0DEB728970FB6F894DEBF0FBECDBF0E94FC
S11303C0520610E029C0E12FF0E0E05DFE4F90817D
S11303D090FF02C02FE001C020EF87E013C09923F3
S11303E044F4E1E0F0E0EC0FFD1FE80FF11D208381
S11303F007C0E1E0F0E0EC0FFD1FE80FF11D1082F3
S1130400990F81508111EBCF1982BE016F5F7F4F2D
S1130410812F0E9435061F5F1031A8F24FE064E07F
S11304208EE00E94160628960FB6F894DEBF0FBE23
S1130430CDBFDF91CF911F9108951F93CF93DF9389
S1130440CDB7DEB768970FB6F894DEBF0FBECDBF49
S11304508C3008F064C020E017C0E22FF0E0EE0F0B
S1130460FF1FEE0FFF1FEE0FFF1F41E050E04C0F88
S11304705D1FE40FF51FE90FF11D10829F5F01C09E
S113048090E0983050F32F5F2330D0F390EF9F87A4
S11304909A879DEF980F963018F090EF9F8B02C0CB
S11304A090EF9F83863018F490EF9A8302C090EF08
S11304B09A8B853011F08B3019F48FE08E8715C03C
S11304C0882331F0843021F0863011F08A3019F419
S11304D08FE08D870AC0813031F0833021F087307E
S11304E011F0893021F48FE08C8710E016C08FE082
S11304F08B87FBCF612F70E0660F771F660F771F26
S1130500660F771F81E090E08C0F9D1F680F791FA5
S11305108DE0810F0E9435061F5F133058F36896F3
S11305200FB6F894DEBF0FBECDBFDF91CF911F9100
S11305300895413031F0423011F040E003C04FE003
S113054001C040EF8E5F0E9416060895CF92DF929D
S1130550EF92FF920F931F93CF93DF93CDB7DEB744
S1130560C054D1090FB6F894DEBF0FBECDBF80E0F2
S113057090E03FC0E0915501EE0FFF0BE45EFE4FAB
S11305804081518121E030E0082E02C0220F331F48
S11305900A94E2F74223532361E070E0452B11F4FF
S11305A060E070E0FC01EE0FFF1F41E050E04C0FF3
S11305B05D1FE40FF51F71836083E0915601EE0F18
S11305C0FF0BE45EFE4F408151812423352341E03B
S11305D050E0232B11F440E050E0FC01EE0FFF1F2C
S11305E021E030E02C0F3D1FE20FF31F51A340A385
S11305F001968F3091050CF4BDCF0F2EF6E0CF2E6F
S1130600D12CF02DE12CF12C24C0F701EE0FFF1FAB
S113061041E050E04C0F5D1FE40FF51F8081918194
S1130620019749F44FE86C2D802F0E9416065FEF66
S1130630E51AF50A03C08FEFE81AF80A0150110908
S113064002C006E010E004301105FCF691E0C91A7E
S1130650D10822E0C216D104A4F70F2EF6E0CF2E63
S1130660D12CF02DE12CF12C24C0F701EE0FFF1F4B
S113067041E050E04C0F5D1FE40FF51F80A191A1F4
S1130680019749F44FE86C2D802F0E9416065FEF06
S1130690E51AF50A03C08FEFE81AF80A01501109A8
S11306A002C00BE010E009301105FCF691E0C91A14
S11306B0D10822E0C216D104A4F7C05CDF4F0FB604
S11306C0F894DEBF0FBECDBFDF91CF911F910F9184
S11306D0FF90EF90DF90CF9008950F931F93CF93E7
S11306E0DF9306E010E00EC040E0602F8C2F0E94E4
S11306F01606219702C0C6E0D0E0C430D105A4F7A5
S11307000150110902301105B4F706E010E00EC0E3
S113071040E0602F8C2F0E941606219702C0CBE088
S1130720D0E0C930D105A4F70150110902301105F8
S1130730B4F7DF91CF911F910F91089580915501E6
S113074008958091560108950E949A0C80FD04C07A
S113075081E080935C0108958FEF80935C0108959C
S11307600E949A0C63E070E00E94E50B8150809334
S1130770580180915901883049F40E949A0C80FFF5
S113078002C080E001C08FEF80935801809159012D
S1130790811107C00E949A0C91E080FD90E0909333
S11307A058010895FF920F931F93CF93DF9390E026
S11307B0FC01E05CFE4FF080FC01E35BFE4F008136
S11307C0002E000C110BE80106C041E06C2F8F2DA8
S11307D00E9499022196C8010296C817D907ACF362
S11307E0DF91CF911F910F91FF9008950E94900186
S11307F0EDE4F1E083E08083818380E00E94D20312
S113080081E00E94D2031092550110925601109279
S1130810570110925A0140E06091590180915B01A7
S11308200E94990285E080935B0184E080935901E2
S11308300E949E0BCB010E949F0C0E94A4030E9465
S1130840B00342E06091590180915B010E949902DA
S11308500895FF920F931F93CF93DF9390E0FC01D1
S1130860E05CFE4FF080FC01E35BFE4F0081002E54
S1130870000C110BE80106C040E06C2F8F2D0E9484
S113088099022196C8010296C817D907ACF3DF91E3
S1130890CF911F910F91FF9008950F931F93CF93C2
S11308A0DF93082F082E000C110BF801E35BFE4FB9
S11308B0C081C60F9C2F20915B01E1E02111E0E093
S11308C031E02B3009F030E04091590121E09413DC
S11308D020E06C2F0C2E000C770B6F5F7F4F042EE3
S11308E0000C550B91E04617570709F090E0292BAF
S11308F09E2F932B922361F4C73050F4D82F0E947B
S11309002904F801E35BFE4FC0838D2F0E94D203BC
S1130910DF91CF911F910F9108951F93CF93DF9390
S113092010915B0180915C01180FD0915901809165
S113093058019D2F980F983028F081958093580185
S1130940D80F01C0D92F11230CF03FC00E94A4037B
S11309500E94B003809156018F5F809356016AE034
S113096070E082E490E00E94650B80915601282F8C
S1130970082E000C330B3F938F938FE790E09F93E7
S11309808F930E94E80C1092570110925A0140E094
S113099060E080E00E94160640E060E08FE00E9484
S11309A016060F900F900F900F90C0E00AC040E021
S11309B06C2F80E00E94160640E06C2F8FE00E94AE
S11309C01606CF5FA1F7D4E015E01C300CF43FC04D
S11309D00E94A4030E94B003809155018F5F80930D
S11309E055016AE070E08AE190E00E94650B809115
S11309F05501282F082E000C330B3F938F938CE75F
S1130A0090E09F938F930E94E80C109257011092EC
S1130A105A0140E060E080E00E94160640E060E099
S1130A208FE00E9416060F900F900F900F90C0E079
S1130A300AC040E06C2F80E00E94160640E06C2F54
S1130A408FE00E941606CF5FA1F7D4E015E071E0B5
S1130A50111170E090914D01292F092E000C330BD8
S1130A602F5F3F4F61E0D91360E081E04D2F0D2EE1
S1130A70000C550B4217530709F080E0862B7723AF
S1130A80B9F18823A9F10E94B00310915C01812F70
S1130A90819580935C0110915B01180FD0915901ED
S1130AA080915801D80F6091570191E0960F90936F
S1130AB0570189E39802812D1124859597FD83952B
S1130AC0282F220F220F220F820F981729F049EAAC
S1130AD080E00E9416060CC081E080935701C0E0BC
S1130AE005C040E06C2F80E00E941606CF5FC9F776
S1130AF061E01B3009F060E090914E01292F092E2E
S1130B00000C330B2F5F3F4F71E0D91370E081E08D
S1130B104D2F0D2E000C550B4217530709F080E0A2
S1130B20872B6623B9F18823A9F10E94B0031091A1
S1130B305C01812F819580935C0110915B01180FFA
S1130B40D091590180915801D80F60915A0191E0D8
S1130B50960F90935A0189E39802812D112485956B
S1130B6097FD8395282F220F220F220F820F9817AB
S1130B7029F049EA8FE00E9416060CC081E08093B8
S1130B805A01C0E005C040E06C2F8FE00E941606B9
S1130B90CF5FC9F740E06091590180915B010E94E9
S1130BA0990210935B01D093590142E06D2F812F7C
S1130BB00E949902DF91CF911F91089590914F0166
S1130BC081E0891B80934F019BB184E089278BB915
S1130BD080914F0181110AC0E09156010E2E000C44
S1130BE0FF0BEC5FFE4F808188B90895E0915501B9
S1130BF00E2E000CFF0BEC5FFE4F808188B9089528
S1130C0080915501893021F40E94DE0581E0089528
S1130C1080915601893021F40E94DE0581E0089517
S1130C2080E0089580E80E94330B08951F93CF93CA
S1130C30DF938031B0F46830A0F4142FC62FD82F7E
S1130C4081E00E945F0B6C2F677080E1689F9001C8
S1130C5011248D2F8F70822B0E945F0B812F0E9495
S1130C605F0BDF91CF911F9108950F931F93CF9343
S1130C708031A0F48B01C82F83E00E945F0B8C2F7E
S1130C808F700E945F0BC0E007C0F801EC0FF11DEC
S1130C9080810E945F0BCF5FC830B8F3CF911F9162
S1130CA00F9108958FE00E945F0B08950E94120631
S1130CB00E94CC0040E060E07BE480E090E00E9491
S1130CC04B0A0E94880B8FEF87B98AB184608AB976
S1130CD0789408958F929F92AF92BF92CF92DF92B1
S1130CE0EF92FF92CF930E94760B0E947F0B6AE0F3
S1130CF070E08AE090E00E94650B8FE391E09F939F
S1130D008F930E94E80C6CE070E08AE090E00E940F
S1130D10650B82E191E09F938F930E94E80C0E94FF
S1130D20D4010E949E0B4B015C010F900F900F9019
S1130D300F90C0E00E94920A882339F080917102DA
S1130D40909172020E94AA0C01C08FEF833719F1AF
S1130D50833509F10E94DC008F3FE9F40E949E0B69
S1130D606B017C01AB01BC01481959096A097B0973
S1130D70453F514061057105E8F28C2F0E941D0228
S1130D808C2F90E001966CE070E00E94E50BC82F78
S1130D9046015701CFCFCF91FF90EF90DF90CF90D6
S1130DA0BF90AF909F908F9008950E94760B0E9401
S1130DB0F6030E94DC000E94990A0895CF936EE026
S1130DC070E08AE090E00E94650B8CEB90E09F93CA
S1130DD08F930E94E80C6FE070E08AE090E00E943C
S1130DE0650B8EE890E09F938F930E94E80C0F9020
S1130DF00F900F900F9022C00E94A6020E94920AA8
S1130E008823E1F080917102909172020E94AA0CF1
S1130E10C1E0833709F0C0E091E0833509F090E048
S1130E20C92B0E94DC0091E08F3F09F490E0C111CE
S1130E3002C0992319F00E946A0604C00E94DC00D3
S1130E408F3FD1F2CF9108950E94920A8823E1F353
S1130E5080917102909172020E94AA0C21E0803765
S1130E6009F020E091E0803509F090E0922B61F3E5
S1130E7062E370E080E290E00E94650B82E890E01B
S1130E809F938F930E94E80C0F900F9008952F92D8
S1130E903F924F925F926F927F928F929F92AF9206
S1130EA0BF92CF92DF92EF92FF920F931F93CF9353
S1130EB0DF93CDB7DEB763970FB6F894DEBF0FBEEE
S1130EC0CDBF0E949E0B4B015C010E949E03082F24
S1130ED00E94A10389830E949E0B6F837887898770
S1130EE09A876AE070E08AE090E00E94650B80E0F7
S1130EF091E09F938F930E94E80C6AE070E082E394
S1130F0090E00E94650B8EEE90E09F938F930E9479
S1130F10E80C65E070E08EE190E00E94650B8EEDD8
S1130F2090E09F938F930E94E80C0F900F900F9086
S1130F300F900F900F901A821D861C861B861E82AE
S1130F4022242A94322C210124EF31E040E050E0A5
S1130F502E873F87488B598B702E30E03A8B0CC21A
S1130F600E949E0B6B017C01C218D308E408F508AB
S1130F700E94DC00182F0E940401082F0E949E0387
S1130F808A830E94A103682E0E949E0BDC01CB0180
S1130F9088199909AA09BB0931E04A81741201C070
S1130FA030E021E05981561101C020E0232B69F083
S1130FB00E949E0B4B015C010E94A60269827A800A
S1130FC081E08A8B80E090E0DC012A89213041F4C1
S1130FD08C3D9540A105B10518F00E946D031A8A55
S1130FE04A894111C7C10E949E0B6A837B838C830B
S1130FF09D838E859F85A889B9892F8138854985E8
S11310005A85820F931FA41FB51F2A813B814C81EF
S11310105D81281739074A075B0750F00E948D0449
S11310208A819B81AC81BD818F839887A987BA8788
S11310309D85913071F4A4E6CA16D104E104F1044B
S113104044F061E080E00E944D040E949E0B1B016D
S11310502C01033009F41D86133051F461E080E063
S11310600E944D040E949E0B1B012C01B1E0BD8720
S11310702C85213071F434E6C316D104E104F10463
S113108044F06FEF80E00E944D040E949E0B1B0110
S11310902C01023009F41C86123051F46FEF80E009
S11310A00E944D040E949E0B1B012C0141E04C87C1
S11310B05B85513071F484E6C816D104E104F1046F
S11310C044F061E081E00E944D040E949E0B1B01EC
S11310D02C01013009F41B86113051F461E081E0E8
S11310E00E944D040E949E0B1B012C0191E09B87E2
S11310F0AE81A13071F4B4E6CB16D104E104F1045D
S113110044F06FEF81E00E944D040E949E0B1B018E
S11311102C01011101C01E8211110AC06FEF81E080
S11311200E944D040E949E0B1B012C0121E02E8382
S11311300E94920A882309F41DC180917102909142
S113114072020E94AA0C8B8B91E0873709F090E021
S113115081E03B89373509F080E0892B21F061E09B
S113116080E00E944D0491E04B89433709F090E000
S113117081E05B89533509F080E0982B81E0AB89ED
S1131180A43609F080E021E0BB89B43409F020E002
S1131190892B11F4222321F06FEF80E00E944D048B
S11311A02B892F3621F461E081E00E944D0491E007
S11311B03B893B3609F090E081E04B894B3409F0E0
S11311C080E0982B81E05B895C3609F080E021E0C7
S11311D0AB89AC3409F020E0892B11F4222321F0EF
S11311E06FEF81E00E944D04BB89B13301F565E0E6
S11311F070E08AE290E00E94650B1F921F9281E0EA
S11312008F9384EF8F938BED90E09F938F930E9445
S1131210E80C0F900F900F900F900F900F9024EF09
S113122031E040E050E02E873F87488B598B3B8963
S1131230323301F565E070E08AE290E00E94650BCC
S11312401F921F9281E08F938CE28F9388ED90E040
S11312509F938F930E94E80C0F900F900F900F9024
S11312600F900F908CE291E0A0E0B0E08E879F8712
S1131270A88BB98B9B899333F9F465E070E08AE21B
S113128090E00E94650B1F921F921F9288EC8F932F
S113129085ED90E09F938F930E94E80C0F900F9040
S11312A00F900F900F900F9028EC30E040E050E04A
S11312B02E873F87488B598B3B893433F9F465E09B
S11312C070E08AE290E00E94650B1F921F921F92C9
S11312D08DE78F9382ED90E09F938F930E94E80CAB
S11312E00F900F900F900F900F900F908DE790E05C
S11312F0A0E0B0E08E879F87A88BB98B91E0AB8983
S1131300A03709F090E081E0BB89B03509F080E0B6
S1131310892B81F162E370E080E290E00E94650B2A
S113132086EC90E09F938F930E94E80C8BB128E0A9
S113133082278BB90E9424078BB138E038273BB948
S11313400E949E0BDC01CB012A813B814C815D8193
S1131350821B930BA40BB50B2F81388549855A85C5
S1131360280F391F4A1F5B1F2F83388749875A87E5
S11313700F900F900E9400060E940006882309F433
S1131380EFCD63960FB6F894DEBF0FBECDBFDF91ED
S1131390CF911F910F91FF90EF90DF90CF90BF906E
S11313A0AF909F908F907F906F905F904F903F9001
S11313B02F9008950E9456060E946A060E94D50640
S11313C00E9447070E94DE06F9CFCF93C82F8A30C8
S11313D019F48DE00E94E5099FB7907802C0992323
S11313E029F180915E018F3FD1F3F894E0915D0182
S11313F081E08E0F80935D01F0E0E15AFE4FC083DF
S113140080915E018F5F80935E0180915D018F3FCB
S113141011F410925D01E1ECF0E080818062808340
S1131420992339F0789480E090E005C081E090E061
S113143002C080E090E0CF910895809170028823EB
S1131440E1F32FB72078F89480915E023091700216
S113145090E0831B91095AF4E0915E02809170023E
S1131460F0E0E81BF109E159FD4F80810AC0E091E9
S11314705E0280917002F0E0E81BF109E15AFD4F31
S1131480808190917002915090937002222309F010
S1131490789490E0089510925D0110925E0110928C
S11314A05E021092700210926F0240935001DC01B0
S11314B0CB01880F991FAA1FBB1F880F991FAA1F52
S11314C0BB1F9C01AD01220F331F441F551F60E059
S11314D072E18AE790E00E94F90BBA01A9014F5F1B
S11314E05F4F6F4F7F4FDB01CA011AF40196A11DB4
S11314F0B11DB595A7959795879501979093C500CC
S11315008093C400E1ECF0E088E18083808180680E
S11315108083E1E7F2E08EE091E09383828391831C
S1131520808308959091700281E0911101C080E060
S1131530089510925E021092700208951F920F9205
S11315400FB60F9211242F938F939F93EF93FF93D2
S113155080915E01882329F180915D0120915E01D3
S113156090E0821B91095AF4E0915D0180915E0143
S1131570F0E0E81BF109E25AFD4F90810AC0E091C6
S11315805D0180915E01F0E0E81BF109E15AFE4F34
S1131590908180915E01815080935E019093C6009A
S11315A005C0E1ECF0E080818F7D8083FF91EF91B5
S11315B09F918F912F910F900FBE0F901F901895B0
S11315C01F920F920FB60F9211242F933F934F93B4
S11315D05F936F937F938F939F93AF93BF93CF93B7
S11315E0EF93FF93C091C60080915001882349F086
S11315F080915E018F3F29F060E070E08C2F0E94A3
S1131600E50980917002803120F081E080936F02BF
S113161018C0CD3009F4CAE0E0915E0281E08E0F7B
S113162080935E02F0E0E15AFD4FC0838091700226
S11316308F5F8093700280915E02803111F410926A
S11316405E02FF91EF91CF91BF91AF919F918F91E6
S11316507F916F915F914F913F912F910F900FBEAA
S11316600F901F90189594B1906B94B995B19061B7
S113167095B990E59CBD883021F0803211F082301C
S113168019F491E09DBD01C01DBC803269F028F4BD
S1131690883071F0803161F00EC0803429F08038D8
S11316A051F48CB581608CBD8CB582608CBD03C057
S11316B08CB581608CBD85B18F7E85B908958EBD52
S11316C00DB407FEFDCF8EB508959F938F937F933E
S11316D06F9380E591E09F938F930E94E80C0F90A5
S11316E00F900F900F900F900F9008958BE491E05E
S11316F09F938F930E94E80C0F900F90089584E4B9
S113170091E09F938F930E94E80C0F900F9008959F
S113171010925101109252011092530110925401EF
S113172016BC8CE787BD92E094BD83E085BDEEE6F0
S1131730F0E080818260808395BB08958FB7282F65
S11317402078F89460915101709152018091530175
S113175090915401222309F0789408951F920F92D6
S11317600FB60F9211242F933F934F935F936F9370
S11317707F938F939F93AF93BF93EF93FF93809146
S1131780510190915201A0915301B09154010196DD
S1131790A11DB11D8093510190935201A093530157
S11317A0B09354010E94DE05FF91EF91BF91AF9178
S11317B09F918F917F916F915F914F913F912F9165
S11317C00F900FBE0F901F90189597FB072E16F4DD
S11317D0009407D077FD09D00E94180C07FC05D0AF
S11317E03EF4909581959F4F0895709561957F4F34
S11317F00895052E97FB1EF400940E94100C57FDCB
S113180007D00E942C0C07FC03D04EF40C94100C4F
S113181050954095309521953F4F4F4F5F4F089518
S113182090958095709561957F4F8F4F9F4F089548
S1131830AA1BBB1B51E107C0AA1FBB1FA617B707F2
S113184010F0A61BB70B881F991F5A95A9F780950E
S11318509095BC01CD010895A1E21A2EAA1BBB1BD1
S1131860FD010DC0AA1FBB1FEE1FFF1FA217B30768
S1131870E407F50720F0A21BB30BE40BF50B661F7E
S1131880771F881F991F1A9469F760957095809542
S113189090959B01AC01BD01CF0108958F929F9259
S11318A0AF92BF92CF92DF92EF92FF92CF93DF93EA
S11318B0EC01688179818A819B81611571058105BB
S11318C0910521F464E279ED8BE597E02DE133EFA6
S11318D041E050E00E94F90B49015A019B01AC011F
S11318E0A7EAB1E40E949F0F6B017C01ACEEB4EF58
S11318F0A50194010E94AD0FDC01CB018C0D9D1D4F
S1131900AE1DBF1DB7FF03C00197A109B04888836E
S11319109983AA83BB839F77DF91CF91FF90EF9048
S1131920DF90CF90BF90AF909F908F9008950E94CA
S11319304E0C089580E091E00E944E0C0895A0E0C2
S1131940B0E08093000190930101A0930201B09351
S113195003010895CF93DF93EC012B8120FF33C063
S113196026FF0AC02F7B2B838E819F8101969F8344
S11319708E838A8190E029C022FF0FC0E881F9811B
S11319808081082E000C990B009719F420622B8398
S11319901AC03196F983E8830EC0EA85FB85099560
S11319A097FF09C02B81019611F080E201C080E10C
S11319B0822B8B8308C02E813F812F5F3F4F3F8353
S11319C02E83992702C08FEF9FEFDF91CF91089567
S11319D0A0E0B0E0EEEEFCE00C94C00FAE01495F75
S11319E05F4FDA016D917D91AD0101E712E0F801DD
S11319F082819381DC0113962C91139728601396AE
S1131A002C930E940E0DD8011296ED91FC91139720
S1131A102381277F2383E4E00C94DC0FABE0B0E068
S1131A20E4E1FDE00C94B20F6C017B018A01FC013E
S1131A3017821682838181FFCCC1CE0101963C01BD
S1131A40F6019381F70193FD859193FF81917F01C5
S1131A50882309F4BAC1853239F493FD859193FF43
S1131A6081917F01853229F4B60190E00E94050F2F
S1131A70E7CF912C212C312CFFE1F315D8F08B32D8
S1131A8079F038F4803279F08332A1F4232D206187
S1131A901DC08D3261F0803369F4232D216016C09E
S1131AA0832D8260382EE32DE4603E2E2AC0F32D70
S1131AB0F8601DC037FC2DC020ED280F2A3040F0FF
S1131AC08E32B9F436FC81C1232D2064322E19C024
S1131AD036FE06C08AE0989E200D1124922E11C075
S1131AE0EAE02E9E200D1124222EF32DF0623F2ECB
S1131AF008C08C3621F4832D8068382E02C08836C5
S1131B0041F4F70193FD859193FF81917F01811148
S1131B10B3CF982F9F7D9554933028F40C5F1F4FBB
S1131B209FE399830DC0833631F0833771F0833599
S1131B3009F059C021C0F801808189830E5F1F4FCD
S1131B4088248394912C530113C02801F2E04F0E92
S1131B50511CF801A080B18036FE03C0692D70E0ED
S1131B6002C06FEF7FEFC5010E94FA0E4C018201A3
S1131B70F32DFF773F2E16C0280122E0420E511CA0
S1131B80F801A080B18036FE03C0692D70E002C068
S1131B906FEF7FEFC5010E94EF0E4C01F32DF0684B
S1131BA03F2E820133FC1BC0822D90E088169906DB
S1131BB0B0F4B60180E290E00E94050F2A94F4CFBD
S1131BC0F50137FC859137FE81915F01B60190E004
S1131BD00E94050F21102A9421E0821A9108811491
S1131BE0910471F7E8C0843611F0893641F5F801A3
S1131BF037FE07C060817181828193810C5F1F4F22
S1131C0008C060817181072E000C880B990B0E5F50
S1131C101F4FF32DFF763F2E97FF09C090958095B7
S1131C20709561957F4F8F4F9F4FF0683F2E2AE04C
S1131C3030E0A3010E94410F882E861845C08537E5
S1131C4031F4232D2F7EB22E2AE030E025C0932DCF
S1131C50997FB92E8F36C1F018F4883579F0B5C064
S1131C60803719F0883721F0B0C0E92FE061BE2E2B
S1131C70B4FE0DC0FB2DF460BF2E09C034FE0AC0B3
S1131C80292F2660B22E06C028E030E005C020E1EE
S1131C9030E002C020E132E0F801B7FE07C0608105
S1131CA07181828193810C5F1F4F06C060817181B5
S1131CB080E090E00E5F1F4FA3010E94410F882E29
S1131CC08618FB2DFF773F2E36FE0DC0232D2E7F69
S1131CD0A22E891458F434FE0BC032FC09C0832DA3
S1131CE08E7EA82E05C0B82CA32C03C0B82C01C02E
S1131CF0B92CA4FE0FC0FE01E80DF11D80818033D4
S1131D0021F49A2D997EA92E09C0A2FE06C0B3948F
S1131D10B39404C08A2D867809F0B394A3FC11C04F
S1131D20A0FE06C0B21488F4280C922C9B180EC096
S1131D30B21460F4B60180E290E00E94050FB394FF
S1131D40F7CFB21418F42B1802C0982C212CA4FE3F
S1131D5010C0B60180E390E00E94050FA2FE17C0F8
S1131D60A1FC03C088E790E002C088E590E0B601DA
S1131D700CC08A2D867859F0A1FE02C08BE201C006
S1131D8080E2A7FC8DE2B60190E00E94050F891461
S1131D9038F4B60180E390E00E94050F9A94F7CFDF
S1131DA08A94F301E80DF11D8081B60190E00E9450
S1131DB0050F8110F5CF222009F442CEB60180E24E
S1131DC090E00E94050F2A94F6CFF6018681978150
S1131DD002C08FEF9FEF2B96E2E10C94CE0FFC0133
S1131DE00590615070400110D8F7809590958E0F42
S1131DF09F1F0895FC016150704001900110D8F7B5
S1131E00809590958E0F9F1F08950F931F93CF93E6
S1131E10DF93FB01238121FD03C08FEF9FEF2CC0D3
S1131E2022FF16C04681578124813581421753070A
S1131E3044F4A081B1819D012F5F3F4F3183208302
S1131E408C93268137812F5F3F4F3783268314C0BD
S1131E508B01EC01FB010084F185E02D0995892BB0
S1131E60E1F6D80116968D919C91179701961796D5
S1131E709C938E931697CE01DF91CF911F910F9172
S1131E800895FA01AA27283051F1203181F1E8940C
S1131E906F936E7F6E5F7F4F8F4F9F4FAF4FB1E059
S1131EA03ED0B4E03CD0670F781F891F9A1FA11D54
S1131EB0680F791F8A1F911DA11D6A0F711D811D55
S1131EC0911DA11D20D009F468943F912AE0269F1A
S1131ED011243019305D3193DEF6CF010895462F79
S1131EE04770405D4193B3E00FD0C9F7F6CF462F5A
S1131EF04F70405D4A3318F0495D31FD40524193C3
S1131F0002D0A9F7EACFB4E0A6959795879577957F
S1131F106795BA95C9F700976105710508959B0106
S1131F20AC010A2E06945795479537952795BA958F
S1131F30C9F7620F731F841F951FA01D08950E9487
S1131F40E90FA59F900DB49F900DA49F800D911D46
S1131F5011240895B7FF0C949F0F0E949F0F821BBA
S1131F60930B08952F923F924F925F926F927F92BC
S1131F708F929F92AF92BF92CF92DF92EF92FF9295
S1131F800F931F93CF93DF93CDB7DEB7CA1BDB0B41
S1131F900FB6F894DEBF0FBECDBF09942A883988E6
S1131FA048885F846E847D848C849B84AA84B984ED
S1131FB0C884DF80EE80FD800C811B81AA81B981F9
S1131FC0CE0FD11D0FB6F894DEBF0FBECDBFED010D
S1131FD00895A29FB001B39FC001A39F700D811DFE
S1131FE01124911DB29F700D811D1124911D08951E
S1071FF0F894FFCF8F
S1131FF4010000003F065B4F666D7D077F6F0000A4
S1132004000300000000E5091D0A00006F7B922410
S1132014CF79CF73ED13E773E77B4F12EF7BEF7345
S11320247E48787F437F7E407E7F434F0002524048
S1052034000B9B
S9030000FC
